{
  "_format": "hh-sol-artifact-1",
  "contractName": "CarBooklet",
  "sourceName": "contracts/CarBooklet.sol",
  "abi": [
    {
      "inputs": [],
      "stateMutability": "nonpayable",
      "type": "constructor"
    },
    {
      "anonymous": false,
      "inputs": [
        {
          "indexed": false,
          "internalType": "address",
          "name": "",
          "type": "address"
        }
      ],
      "name": "RecordCreated",
      "type": "event"
    },
    {
      "inputs": [
        {
          "internalType": "uint256",
          "name": "mileage",
          "type": "uint256"
        },
        {
          "internalType": "string",
          "name": "description",
          "type": "string"
        }
      ],
      "name": "addMaintenanceRecord",
      "outputs": [],
      "stateMutability": "nonpayable",
      "type": "function"
    },
    {
      "inputs": [
        {
          "internalType": "address",
          "name": "addr",
          "type": "address"
        }
      ],
      "name": "allowAuthorization",
      "outputs": [],
      "stateMutability": "nonpayable",
      "type": "function"
    },
    {
      "inputs": [
        {
          "internalType": "address",
          "name": "addr",
          "type": "address"
        }
      ],
      "name": "hasAuthorizedCredential",
      "outputs": [
        {
          "internalType": "bool",
          "name": "",
          "type": "bool"
        }
      ],
      "stateMutability": "view",
      "type": "function"
    },
    {
      "inputs": [],
      "name": "owner",
      "outputs": [
        {
          "internalType": "address",
          "name": "",
          "type": "address"
        }
      ],
      "stateMutability": "view",
      "type": "function"
    },
    {
      "inputs": [],
      "name": "previousRecord",
      "outputs": [
        {
          "internalType": "uint256",
          "name": "mileage",
          "type": "uint256"
        },
        {
          "internalType": "string",
          "name": "description",
          "type": "string"
        },
        {
          "internalType": "uint256",
          "name": "timestamp",
          "type": "uint256"
        }
      ],
      "stateMutability": "view",
      "type": "function"
    },
    {
      "inputs": [],
      "name": "record",
      "outputs": [
        {
          "internalType": "uint256",
          "name": "mileage",
          "type": "uint256"
        },
        {
          "internalType": "string",
          "name": "description",
          "type": "string"
        },
        {
          "internalType": "uint256",
          "name": "timestamp",
          "type": "uint256"
        }
      ],
      "stateMutability": "view",
      "type": "function"
    },
    {
      "inputs": [
        {
          "internalType": "address",
          "name": "addr",
          "type": "address"
        }
      ],
      "name": "revokeAuthorization",
      "outputs": [],
      "stateMutability": "nonpayable",
      "type": "function"
    }
  ],
  "bytecode": "0x6080604052604051806060016040528060008152602001604051806020016040528060008152508152602001600081525060026000820151816000015560208201518160010190816200005391906200032e565b506040820151816002015550503480156200006d57600080fd5b50336000806101000a81548173ffffffffffffffffffffffffffffffffffffffff021916908373ffffffffffffffffffffffffffffffffffffffff16021790555062000415565b600081519050919050565b7f4e487b7100000000000000000000000000000000000000000000000000000000600052604160045260246000fd5b7f4e487b7100000000000000000000000000000000000000000000000000000000600052602260045260246000fd5b600060028204905060018216806200013657607f821691505b6020821081036200014c576200014b620000ee565b5b50919050565b60008190508160005260206000209050919050565b60006020601f8301049050919050565b600082821b905092915050565b600060088302620001b67fffffffffffffffffffffffffffffffffffffffffffffffffffffffffffffffff8262000177565b620001c2868362000177565b95508019841693508086168417925050509392505050565b6000819050919050565b6000819050919050565b60006200020f620002096200020384620001da565b620001e4565b620001da565b9050919050565b6000819050919050565b6200022b83620001ee565b620002436200023a8262000216565b84845462000184565b825550505050565b600090565b6200025a6200024b565b6200026781848462000220565b505050565b5b818110156200028f576200028360008262000250565b6001810190506200026d565b5050565b601f821115620002de57620002a88162000152565b620002b38462000167565b81016020851015620002c3578190505b620002db620002d28562000167565b8301826200026c565b50505b505050565b600082821c905092915050565b60006200030360001984600802620002e3565b1980831691505092915050565b60006200031e8383620002f0565b9150826002028217905092915050565b6200033982620000b4565b67ffffffffffffffff811115620003555762000354620000bf565b5b6200036182546200011d565b6200036e82828562000293565b600060209050601f831160018114620003a6576000841562000391578287015190505b6200039d858262000310565b8655506200040d565b601f198416620003b68662000152565b60005b82811015620003e057848901518255600182019150602085019450602081019050620003b9565b86831015620004005784890151620003fc601f891682620002f0565b8355505b6001600288020188555050505b505050505050565b61102480620004256000396000f3fe608060405234801561001057600080fd5b506004361061007d5760003560e01c8063b48028e31161005b578063b48028e3146100e0578063d7736e6b146100fc578063f0db83a214610118578063f37f4416146101485761007d565b8063266cf109146100825780635f31f338146100a25780638da5cb5b146100c2575b600080fd5b61008a610164565b604051610099939291906107ae565b60405180910390f35b6100aa610204565b6040516100b9939291906107ae565b60405180910390f35b6100ca6102a4565b6040516100d7919061082d565b60405180910390f35b6100fa60048036038101906100f59190610888565b6102c8565b005b61011660048036038101906101119190610888565b6103b1565b005b610132600480360381019061012d9190610888565b610499565b60405161013f91906108d0565b60405180910390f35b610162600480360381019061015d9190610a4c565b61057d565b005b600280600001549080600101805461017b90610ad7565b80601f01602080910402602001604051908101604052809291908181526020018280546101a790610ad7565b80156101f45780601f106101c9576101008083540402835291602001916101f4565b820191906000526020600020905b8154815290600101906020018083116101d757829003601f168201915b5050505050908060020154905083565b600580600001549080600101805461021b90610ad7565b80601f016020809104026020016040519081016040528092919081815260200182805461024790610ad7565b80156102945780601f1061026957610100808354040283529160200191610294565b820191906000526020600020905b81548152906001019060200180831161027757829003601f168201915b5050505050908060020154905083565b60008054906101000a900473ffffffffffffffffffffffffffffffffffffffff1681565b3373ffffffffffffffffffffffffffffffffffffffff1660008054906101000a900473ffffffffffffffffffffffffffffffffffffffff1673ffffffffffffffffffffffffffffffffffffffff1614610356576040517f08c379a000000000000000000000000000000000000000000000000000000000815260040161034d90610b54565b60405180910390fd5b6000600160008373ffffffffffffffffffffffffffffffffffffffff1673ffffffffffffffffffffffffffffffffffffffff16815260200190815260200160002060006101000a81548160ff02191690831515021790555050565b3373ffffffffffffffffffffffffffffffffffffffff1660008054906101000a900473ffffffffffffffffffffffffffffffffffffffff1673ffffffffffffffffffffffffffffffffffffffff161461043f576040517f08c379a000000000000000000000000000000000000000000000000000000000815260040161043690610b54565b60405180910390fd5b60018060008373ffffffffffffffffffffffffffffffffffffffff1673ffffffffffffffffffffffffffffffffffffffff16815260200190815260200160002060006101000a81548160ff02191690831515021790555050565b60003373ffffffffffffffffffffffffffffffffffffffff1660008054906101000a900473ffffffffffffffffffffffffffffffffffffffff1673ffffffffffffffffffffffffffffffffffffffff1614610529576040517f08c379a000000000000000000000000000000000000000000000000000000000815260040161052090610b54565b60405180910390fd5b600160008373ffffffffffffffffffffffffffffffffffffffff1673ffffffffffffffffffffffffffffffffffffffff16815260200190815260200160002060009054906101000a900460ff169050919050565b600160003373ffffffffffffffffffffffffffffffffffffffff1673ffffffffffffffffffffffffffffffffffffffff16815260200190815260200160002060009054906101000a900460ff16610609576040517f08c379a000000000000000000000000000000000000000000000000000000000815260040161060090610be6565b60405180910390fd5b6002600001548211610650576040517f08c379a000000000000000000000000000000000000000000000000000000000815260040161064790610c52565b60405180910390fd5b6002600560008201548160000155600182018160010190816106729190610e34565b506002820154816002015590505060405180606001604052808381526020018281526020014281525060026000820151816000015560208201518160010190816106bc9190610f1c565b50604082015181600201559050507f3f95a4dda3344c97120cdd763c9c1dd98fdb3ef45bb841de0314c396c0835982336040516106f9919061082d565b60405180910390a15050565b6000819050919050565b61071881610705565b82525050565b600081519050919050565b600082825260208201905092915050565b60005b8381101561075857808201518184015260208101905061073d565b60008484015250505050565b6000601f19601f8301169050919050565b60006107808261071e565b61078a8185610729565b935061079a81856020860161073a565b6107a381610764565b840191505092915050565b60006060820190506107c3600083018661070f565b81810360208301526107d58185610775565b90506107e4604083018461070f565b949350505050565b600073ffffffffffffffffffffffffffffffffffffffff82169050919050565b6000610817826107ec565b9050919050565b6108278161080c565b82525050565b6000602082019050610842600083018461081e565b92915050565b6000604051905090565b600080fd5b600080fd5b6108658161080c565b811461087057600080fd5b50565b6000813590506108828161085c565b92915050565b60006020828403121561089e5761089d610852565b5b60006108ac84828501610873565b91505092915050565b60008115159050919050565b6108ca816108b5565b82525050565b60006020820190506108e560008301846108c1565b92915050565b6108f481610705565b81146108ff57600080fd5b50565b600081359050610911816108eb565b92915050565b600080fd5b600080fd5b7f4e487b7100000000000000000000000000000000000000000000000000000000600052604160045260246000fd5b61095982610764565b810181811067ffffffffffffffff8211171561097857610977610921565b5b80604052505050565b600061098b610848565b90506109978282610950565b919050565b600067ffffffffffffffff8211156109b7576109b6610921565b5b6109c082610764565b9050602081019050919050565b82818337600083830152505050565b60006109ef6109ea8461099c565b610981565b905082815260208101848484011115610a0b57610a0a61091c565b5b610a168482856109cd565b509392505050565b600082601f830112610a3357610a32610917565b5b8135610a438482602086016109dc565b91505092915050565b60008060408385031215610a6357610a62610852565b5b6000610a7185828601610902565b925050602083013567ffffffffffffffff811115610a9257610a91610857565b5b610a9e85828601610a1e565b9150509250929050565b7f4e487b7100000000000000000000000000000000000000000000000000000000600052602260045260246000fd5b60006002820490506001821680610aef57607f821691505b602082108103610b0257610b01610aa8565b5b50919050565b7f4f6e6c79206f776e657220697320616c6c6f7765642e00000000000000000000600082015250565b6000610b3e601683610729565b9150610b4982610b08565b602082019050919050565b60006020820190508181036000830152610b6d81610b31565b9050919050565b7f4f6e6c7920617574686f72697a6564206164647265737365732061726520616c60008201527f6c6f7765642e0000000000000000000000000000000000000000000000000000602082015250565b6000610bd0602683610729565b9150610bdb82610b74565b604082019050919050565b60006020820190508181036000830152610bff81610bc3565b9050919050565b7f4d696c6561676520697320696e636f72726563742e0000000000000000000000600082015250565b6000610c3c601583610729565b9150610c4782610c06565b602082019050919050565b60006020820190508181036000830152610c6b81610c2f565b9050919050565b600081549050610c8181610ad7565b9050919050565b60008190508160005260206000209050919050565b60006020601f8301049050919050565b600082821b905092915050565b600060088302610cea7fffffffffffffffffffffffffffffffffffffffffffffffffffffffffffffffff82610cad565b610cf48683610cad565b95508019841693508086168417925050509392505050565b6000819050919050565b6000610d31610d2c610d2784610705565b610d0c565b610705565b9050919050565b6000819050919050565b610d4b83610d16565b610d5f610d5782610d38565b848454610cba565b825550505050565b600090565b610d74610d67565b610d7f818484610d42565b505050565b5b81811015610da357610d98600082610d6c565b600181019050610d85565b5050565b601f821115610de857610db981610c88565b610dc284610c9d565b81016020851015610dd1578190505b610de5610ddd85610c9d565b830182610d84565b50505b505050565b600082821c905092915050565b6000610e0b60001984600802610ded565b1980831691505092915050565b6000610e248383610dfa565b9150826002028217905092915050565b818103610e42575050610f1a565b610e4b82610c72565b67ffffffffffffffff811115610e6457610e63610921565b5b610e6e8254610ad7565b610e79828285610da7565b6000601f831160018114610ea85760008415610e96578287015490505b610ea08582610e18565b865550610f13565b601f198416610eb687610c88565b9650610ec186610c88565b60005b82811015610ee957848901548255600182019150600185019450602081019050610ec4565b86831015610f065784890154610f02601f891682610dfa565b8355505b6001600288020188555050505b5050505050505b565b610f258261071e565b67ffffffffffffffff811115610f3e57610f3d610921565b5b610f488254610ad7565b610f53828285610da7565b600060209050601f831160018114610f865760008415610f74578287015190505b610f7e8582610e18565b865550610fe6565b601f198416610f9486610c88565b60005b82811015610fbc57848901518255600182019150602085019450602081019050610f97565b86831015610fd95784890151610fd5601f891682610dfa565b8355505b6001600288020188555050505b50505050505056fea2646970667358221220d39b6d5763413c9e96d1df5f12e14648f5df5440958f2c42b9eded878d7d95b764736f6c63430008130033",
  "linkReferences": {},
  "deployedLinkReferences": {}
}