{
  "_format": "hh-sol-artifact-1",
  "contractName": "CarBookletProvider",
  "sourceName": "contracts/CarBookletProvider.sol",
  "abi": [
    {
      "inputs": [],
      "stateMutability": "nonpayable",
      "type": "constructor"
    },
    {
      "anonymous": false,
      "inputs": [
        {
          "indexed": false,
          "internalType": "address",
          "name": "requester",
          "type": "address"
        }
      ],
      "name": "AccessGranted",
      "type": "event"
    },
    {
      "anonymous": false,
      "inputs": [
        {
          "indexed": false,
          "internalType": "address",
          "name": "bookletAddr",
          "type": "address"
        }
      ],
      "name": "BookletCreated",
      "type": "event"
    },
    {
      "inputs": [
        {
          "internalType": "address",
          "name": "addr",
          "type": "address"
        }
      ],
      "name": "allowAuthorization",
      "outputs": [],
      "stateMutability": "nonpayable",
      "type": "function"
    },
    {
      "inputs": [
        {
          "internalType": "address",
          "name": "requester",
          "type": "address"
        }
      ],
      "name": "checkAccess",
      "outputs": [
        {
          "internalType": "bool",
          "name": "",
          "type": "bool"
        }
      ],
      "stateMutability": "view",
      "type": "function"
    },
    {
      "inputs": [
        {
          "internalType": "address",
          "name": "bookletOwner",
          "type": "address"
        }
      ],
      "name": "getBooklets",
      "outputs": [
        {
          "internalType": "address[]",
          "name": "booklets",
          "type": "address[]"
        }
      ],
      "stateMutability": "view",
      "type": "function"
    },
    {
      "inputs": [],
      "name": "getVersion",
      "outputs": [
        {
          "internalType": "string",
          "name": "",
          "type": "string"
        }
      ],
      "stateMutability": "pure",
      "type": "function"
    },
    {
      "inputs": [
        {
          "internalType": "address",
          "name": "requester",
          "type": "address"
        }
      ],
      "name": "grantAccess",
      "outputs": [],
      "stateMutability": "payable",
      "type": "function"
    },
    {
      "inputs": [
        {
          "internalType": "address",
          "name": "addr",
          "type": "address"
        }
      ],
      "name": "hasAuthorizedCredential",
      "outputs": [
        {
          "internalType": "bool",
          "name": "",
          "type": "bool"
        }
      ],
      "stateMutability": "view",
      "type": "function"
    },
    {
      "inputs": [],
      "name": "owner",
      "outputs": [
        {
          "internalType": "address",
          "name": "",
          "type": "address"
        }
      ],
      "stateMutability": "view",
      "type": "function"
    },
    {
      "inputs": [
        {
          "internalType": "address",
          "name": "bookletOwner",
          "type": "address"
        }
      ],
      "name": "provide",
      "outputs": [],
      "stateMutability": "nonpayable",
      "type": "function"
    },
    {
      "inputs": [
        {
          "internalType": "address",
          "name": "addr",
          "type": "address"
        }
      ],
      "name": "revokeAuthorization",
      "outputs": [],
      "stateMutability": "nonpayable",
      "type": "function"
    }
  ],
  "bytecode": "0x608060405234801561001057600080fd5b50336000806101000a81548173ffffffffffffffffffffffffffffffffffffffff021916908373ffffffffffffffffffffffffffffffffffffffff16021790555061235d806100606000396000f3fe608060405260043610620000925760003560e01c80638da5cb5b11620000615780638da5cb5b1462000159578063b48028e31462000189578063c44d643714620001b7578063d7736e6b14620001fb578063f0db83a214620002295762000092565b80630ae5e73914620000975780630d8e6e2c14620000b75780631803aa3314620000e7578063466a01461462000115575b600080fd5b620000b56004803603810190620000af919062000bd2565b6200026d565b005b348015620000c457600080fd5b50620000cf6200044d565b604051620000de919062000c9e565b60405180910390f35b348015620000f457600080fd5b506200011360048036038101906200010d919062000bd2565b6200048a565b005b3480156200012257600080fd5b506200014160048036038101906200013b919062000bd2565b62000633565b60405162000150919062000cdf565b60405180910390f35b3480156200016657600080fd5b50620001716200071a565b60405162000180919062000d0d565b60405180910390f35b3480156200019657600080fd5b50620001b56004803603810190620001af919062000bd2565b6200073e565b005b348015620001c457600080fd5b50620001e36004803603810190620001dd919062000bd2565b6200082a565b604051620001f2919062000df8565b60405180910390f35b3480156200020857600080fd5b5062000227600480360381019062000221919062000bd2565b62000988565b005b3480156200023657600080fd5b506200025560048036038101906200024f919062000bd2565b62000a73565b60405162000264919062000cdf565b60405180910390f35b600160008273ffffffffffffffffffffffffffffffffffffffff1673ffffffffffffffffffffffffffffffffffffffff16815260200190815260200160002060009054906101000a900460ff1615620002fd576040517f08c379a0000000000000000000000000000000000000000000000000000000008152600401620002f49062000e6c565b60405180910390fd5b67016345785d8a00003410156200034b576040517f08c379a0000000000000000000000000000000000000000000000000000000008152600401620003429062000f04565b60405180910390fd5b60008060009054906101000a900473ffffffffffffffffffffffffffffffffffffffff1690508073ffffffffffffffffffffffffffffffffffffffff166108fc349081150290604051600060405180830381858888f19350505050158015620003b8573d6000803e3d6000fd5b5060018060008473ffffffffffffffffffffffffffffffffffffffff1673ffffffffffffffffffffffffffffffffffffffff16815260200190815260200160002060006101000a81548160ff0219169083151502179055507fdeb5c31899474fe8c086c95ff9344480d19365676a6a1d22d37bb8e3e7c0ef188260405162000441919062000d0d565b60405180910390a15050565b60606040518060400160405280600281526020017f7631000000000000000000000000000000000000000000000000000000000000815250905090565b600160003373ffffffffffffffffffffffffffffffffffffffff1673ffffffffffffffffffffffffffffffffffffffff16815260200190815260200160002060009054906101000a900460ff1662000519576040517f08c379a0000000000000000000000000000000000000000000000000000000008152600401620005109062000f9c565b60405180910390fd5b6000816040516200052a9062000b5a565b62000536919062000d0d565b604051809103906000f08015801562000553573d6000803e3d6000fd5b509050600260008373ffffffffffffffffffffffffffffffffffffffff1673ffffffffffffffffffffffffffffffffffffffff168152602001908152602001600020819080600181540180825580915050600190039060005260206000200160009091909190916101000a81548173ffffffffffffffffffffffffffffffffffffffff021916908373ffffffffffffffffffffffffffffffffffffffff1602179055507fd94317ab0056271298c300bb96d174a3d5d1cbd4b6a0f2a6f1562ca2bc68f2338160405162000627919062000d0d565b60405180910390a15050565b60003373ffffffffffffffffffffffffffffffffffffffff1660008054906101000a900473ffffffffffffffffffffffffffffffffffffffff1673ffffffffffffffffffffffffffffffffffffffff1614620006c6576040517f08c379a0000000000000000000000000000000000000000000000000000000008152600401620006bd906200100e565b60405180910390fd5b600160008373ffffffffffffffffffffffffffffffffffffffff1673ffffffffffffffffffffffffffffffffffffffff16815260200190815260200160002060009054906101000a900460ff169050919050565b60008054906101000a900473ffffffffffffffffffffffffffffffffffffffff1681565b3373ffffffffffffffffffffffffffffffffffffffff1660008054906101000a900473ffffffffffffffffffffffffffffffffffffffff1673ffffffffffffffffffffffffffffffffffffffff1614620007cf576040517f08c379a0000000000000000000000000000000000000000000000000000000008152600401620007c6906200100e565b60405180910390fd5b6000600160008373ffffffffffffffffffffffffffffffffffffffff1673ffffffffffffffffffffffffffffffffffffffff16815260200190815260200160002060006101000a81548160ff02191690831515021790555050565b6060600160003373ffffffffffffffffffffffffffffffffffffffff1673ffffffffffffffffffffffffffffffffffffffff16815260200190815260200160002060009054906101000a900460ff16620008bb576040517f08c379a0000000000000000000000000000000000000000000000000000000008152600401620008b29062000f9c565b60405180910390fd5b600260008373ffffffffffffffffffffffffffffffffffffffff1673ffffffffffffffffffffffffffffffffffffffff1681526020019081526020016000208054806020026020016040519081016040528092919081815260200182805480156200097c57602002820191906000526020600020905b8160009054906101000a900473ffffffffffffffffffffffffffffffffffffffff1673ffffffffffffffffffffffffffffffffffffffff168152602001906001019080831162000931575b50505050509050919050565b3373ffffffffffffffffffffffffffffffffffffffff1660008054906101000a900473ffffffffffffffffffffffffffffffffffffffff1673ffffffffffffffffffffffffffffffffffffffff161462000a19576040517f08c379a000000000000000000000000000000000000000000000000000000000815260040162000a10906200100e565b60405180910390fd5b60018060008373ffffffffffffffffffffffffffffffffffffffff1673ffffffffffffffffffffffffffffffffffffffff16815260200190815260200160002060006101000a81548160ff02191690831515021790555050565b60003373ffffffffffffffffffffffffffffffffffffffff1660008054906101000a900473ffffffffffffffffffffffffffffffffffffffff1673ffffffffffffffffffffffffffffffffffffffff161462000b06576040517f08c379a000000000000000000000000000000000000000000000000000000000815260040162000afd906200100e565b60405180910390fd5b600160008373ffffffffffffffffffffffffffffffffffffffff1673ffffffffffffffffffffffffffffffffffffffff16815260200190815260200160002060009054906101000a900460ff169050919050565b6112f7806200103183390190565b600080fd5b600073ffffffffffffffffffffffffffffffffffffffff82169050919050565b600062000b9a8262000b6d565b9050919050565b62000bac8162000b8d565b811462000bb857600080fd5b50565b60008135905062000bcc8162000ba1565b92915050565b60006020828403121562000beb5762000bea62000b68565b5b600062000bfb8482850162000bbb565b91505092915050565b600081519050919050565b600082825260208201905092915050565b60005b8381101562000c4057808201518184015260208101905062000c23565b60008484015250505050565b6000601f19601f8301169050919050565b600062000c6a8262000c04565b62000c76818562000c0f565b935062000c8881856020860162000c20565b62000c938162000c4c565b840191505092915050565b6000602082019050818103600083015262000cba818462000c5d565b905092915050565b60008115159050919050565b62000cd98162000cc2565b82525050565b600060208201905062000cf6600083018462000cce565b92915050565b62000d078162000b8d565b82525050565b600060208201905062000d24600083018462000cfc565b92915050565b600081519050919050565b600082825260208201905092915050565b6000819050602082019050919050565b62000d618162000b8d565b82525050565b600062000d75838362000d56565b60208301905092915050565b6000602082019050919050565b600062000d9b8262000d2a565b62000da7818562000d35565b935062000db48362000d46565b8060005b8381101562000deb57815162000dcf888262000d67565b975062000ddc8362000d81565b92505060018101905062000db8565b5085935050505092915050565b6000602082019050818103600083015262000e14818462000d8e565b905092915050565b7f5265717565737465722068617320616c72656164792061636365737300000000600082015250565b600062000e54601c8362000c0f565b915062000e618262000e1c565b602082019050919050565b6000602082019050818103600083015262000e878162000e45565b9050919050565b7f4d696e696d756d20616d6f756e7420746f2073656e6420697320302e3120455460008201527f4800000000000000000000000000000000000000000000000000000000000000602082015250565b600062000eec60218362000c0f565b915062000ef98262000e8e565b604082019050919050565b6000602082019050818103600083015262000f1f8162000edd565b9050919050565b7f4f6e6c7920617574686f72697a6564206164647265737365732061726520616c60008201527f6c6f7765642e0000000000000000000000000000000000000000000000000000602082015250565b600062000f8460268362000c0f565b915062000f918262000f26565b604082019050919050565b6000602082019050818103600083015262000fb78162000f75565b9050919050565b7f4f6e6c79206f776e657220697320616c6c6f7765642e00000000000000000000600082015250565b600062000ff660168362000c0f565b9150620010038262000fbe565b602082019050919050565b60006020820190508181036000830152620010298162000fe7565b905091905056fe60806040523480156200001157600080fd5b50604051620012f7380380620012f7833981810160405281019062000037919062000160565b806000806101000a81548173ffffffffffffffffffffffffffffffffffffffff021916908373ffffffffffffffffffffffffffffffffffffffff16021790555060018060008060009054906101000a900473ffffffffffffffffffffffffffffffffffffffff1673ffffffffffffffffffffffffffffffffffffffff1673ffffffffffffffffffffffffffffffffffffffff16815260200190815260200160002060006101000a81548160ff0219169083151502179055505062000192565b600080fd5b600073ffffffffffffffffffffffffffffffffffffffff82169050919050565b60006200012882620000fb565b9050919050565b6200013a816200011b565b81146200014657600080fd5b50565b6000815190506200015a816200012f565b92915050565b600060208284031215620001795762000178620000f6565b5b6000620001898482850162000149565b91505092915050565b61115580620001a26000396000f3fe608060405234801561001057600080fd5b506004361061007d5760003560e01c8063b48028e31161005b578063b48028e3146100ee578063d7736e6b1461010a578063f0db83a214610126578063f37f4416146101565761007d565b8063188b3a47146100825780634cb4d409146100b25780638da5cb5b146100d0575b600080fd5b61009c6004803603810190610097919061086b565b610172565b6040516100a99190610987565b60405180910390f35b6100ba6102d1565b6040516100c791906109b8565b60405180910390f35b6100d86102d7565b6040516100e59190610a14565b60405180910390f35b61010860048036038101906101039190610a5b565b6102fb565b005b610124600480360381019061011f9190610a5b565b6103e4565b005b610140600480360381019061013b9190610a5b565b6104cc565b60405161014d9190610aa3565b60405180910390f35b610170600480360381019061016b9190610bf3565b6105b0565b005b61017a610800565b600160003373ffffffffffffffffffffffffffffffffffffffff1673ffffffffffffffffffffffffffffffffffffffff16815260200190815260200160002060009054906101000a900460ff16610206576040517f08c379a00000000000000000000000000000000000000000000000000000000081526004016101fd90610cd2565b60405180910390fd5b600360008381526020019081526020016000206040518060600160405290816000820154815260200160018201805461023e90610d21565b80601f016020809104026020016040519081016040528092919081815260200182805461026a90610d21565b80156102b75780601f1061028c576101008083540402835291602001916102b7565b820191906000526020600020905b81548152906001019060200180831161029a57829003601f168201915b505050505081526020016002820154815250509050919050565b60025481565b60008054906101000a900473ffffffffffffffffffffffffffffffffffffffff1681565b3373ffffffffffffffffffffffffffffffffffffffff1660008054906101000a900473ffffffffffffffffffffffffffffffffffffffff1673ffffffffffffffffffffffffffffffffffffffff1614610389576040517f08c379a000000000000000000000000000000000000000000000000000000000815260040161038090610d9e565b60405180910390fd5b6000600160008373ffffffffffffffffffffffffffffffffffffffff1673ffffffffffffffffffffffffffffffffffffffff16815260200190815260200160002060006101000a81548160ff02191690831515021790555050565b3373ffffffffffffffffffffffffffffffffffffffff1660008054906101000a900473ffffffffffffffffffffffffffffffffffffffff1673ffffffffffffffffffffffffffffffffffffffff1614610472576040517f08c379a000000000000000000000000000000000000000000000000000000000815260040161046990610d9e565b60405180910390fd5b60018060008373ffffffffffffffffffffffffffffffffffffffff1673ffffffffffffffffffffffffffffffffffffffff16815260200190815260200160002060006101000a81548160ff02191690831515021790555050565b60003373ffffffffffffffffffffffffffffffffffffffff1660008054906101000a900473ffffffffffffffffffffffffffffffffffffffff1673ffffffffffffffffffffffffffffffffffffffff161461055c576040517f08c379a000000000000000000000000000000000000000000000000000000000815260040161055390610d9e565b60405180910390fd5b600160008373ffffffffffffffffffffffffffffffffffffffff1673ffffffffffffffffffffffffffffffffffffffff16815260200190815260200160002060009054906101000a900460ff169050919050565b600160003373ffffffffffffffffffffffffffffffffffffffff1673ffffffffffffffffffffffffffffffffffffffff16815260200190815260200160002060009054906101000a900460ff1661063c576040517f08c379a000000000000000000000000000000000000000000000000000000000815260040161063390610cd2565b60405180910390fd5b60006003600060025481526020019081526020016000206040518060600160405290816000820154815260200160018201805461067890610d21565b80601f01602080910402602001604051908101604052809291908181526020018280546106a490610d21565b80156106f15780601f106106c6576101008083540402835291602001916106f1565b820191906000526020600020905b8154815290600101906020018083116106d457829003601f168201915b5050505050815260200160028201548152505090508060000151831161074c576040517f08c379a000000000000000000000000000000000000000000000000000000000815260040161074390610e0a565b60405180910390fd5b604051806060016040528084815260200183815260200142815250905060026000815461077890610e59565b91905081905550806003600060025481526020019081526020016000206000820151816000015560208201518160010190816107b4919061104d565b50604082015181600201559050507fd85c539e78ead40cc51b164f6ad949815a6421a9158bee2b8a653e25eb2c5e7d6002546040516107f391906109b8565b60405180910390a1505050565b60405180606001604052806000815260200160608152602001600081525090565b6000604051905090565b600080fd5b600080fd5b6000819050919050565b61084881610835565b811461085357600080fd5b50565b6000813590506108658161083f565b92915050565b6000602082840312156108815761088061082b565b5b600061088f84828501610856565b91505092915050565b6108a181610835565b82525050565b600081519050919050565b600082825260208201905092915050565b60005b838110156108e15780820151818401526020810190506108c6565b60008484015250505050565b6000601f19601f8301169050919050565b6000610909826108a7565b61091381856108b2565b93506109238185602086016108c3565b61092c816108ed565b840191505092915050565b600060608301600083015161094f6000860182610898565b506020830151848203602086015261096782826108fe565b915050604083015161097c6040860182610898565b508091505092915050565b600060208201905081810360008301526109a18184610937565b905092915050565b6109b281610835565b82525050565b60006020820190506109cd60008301846109a9565b92915050565b600073ffffffffffffffffffffffffffffffffffffffff82169050919050565b60006109fe826109d3565b9050919050565b610a0e816109f3565b82525050565b6000602082019050610a296000830184610a05565b92915050565b610a38816109f3565b8114610a4357600080fd5b50565b600081359050610a5581610a2f565b92915050565b600060208284031215610a7157610a7061082b565b5b6000610a7f84828501610a46565b91505092915050565b60008115159050919050565b610a9d81610a88565b82525050565b6000602082019050610ab86000830184610a94565b92915050565b600080fd5b600080fd5b7f4e487b7100000000000000000000000000000000000000000000000000000000600052604160045260246000fd5b610b00826108ed565b810181811067ffffffffffffffff82111715610b1f57610b1e610ac8565b5b80604052505050565b6000610b32610821565b9050610b3e8282610af7565b919050565b600067ffffffffffffffff821115610b5e57610b5d610ac8565b5b610b67826108ed565b9050602081019050919050565b82818337600083830152505050565b6000610b96610b9184610b43565b610b28565b905082815260208101848484011115610bb257610bb1610ac3565b5b610bbd848285610b74565b509392505050565b600082601f830112610bda57610bd9610abe565b5b8135610bea848260208601610b83565b91505092915050565b60008060408385031215610c0a57610c0961082b565b5b6000610c1885828601610856565b925050602083013567ffffffffffffffff811115610c3957610c38610830565b5b610c4585828601610bc5565b9150509250929050565b600082825260208201905092915050565b7f4f6e6c7920617574686f72697a6564206164647265737365732061726520616c60008201527f6c6f7765642e0000000000000000000000000000000000000000000000000000602082015250565b6000610cbc602683610c4f565b9150610cc782610c60565b604082019050919050565b60006020820190508181036000830152610ceb81610caf565b9050919050565b7f4e487b7100000000000000000000000000000000000000000000000000000000600052602260045260246000fd5b60006002820490506001821680610d3957607f821691505b602082108103610d4c57610d4b610cf2565b5b50919050565b7f4f6e6c79206f776e657220697320616c6c6f7765642e00000000000000000000600082015250565b6000610d88601683610c4f565b9150610d9382610d52565b602082019050919050565b60006020820190508181036000830152610db781610d7b565b9050919050565b7f4d696c6561676520697320696e636f72726563742e0000000000000000000000600082015250565b6000610df4601583610c4f565b9150610dff82610dbe565b602082019050919050565b60006020820190508181036000830152610e2381610de7565b9050919050565b7f4e487b7100000000000000000000000000000000000000000000000000000000600052601160045260246000fd5b6000610e6482610835565b91507fffffffffffffffffffffffffffffffffffffffffffffffffffffffffffffffff8203610e9657610e95610e2a565b5b600182019050919050565b60008190508160005260206000209050919050565b60006020601f8301049050919050565b600082821b905092915050565b600060088302610f037fffffffffffffffffffffffffffffffffffffffffffffffffffffffffffffffff82610ec6565b610f0d8683610ec6565b95508019841693508086168417925050509392505050565b6000819050919050565b6000610f4a610f45610f4084610835565b610f25565b610835565b9050919050565b6000819050919050565b610f6483610f2f565b610f78610f7082610f51565b848454610ed3565b825550505050565b600090565b610f8d610f80565b610f98818484610f5b565b505050565b5b81811015610fbc57610fb1600082610f85565b600181019050610f9e565b5050565b601f82111561100157610fd281610ea1565b610fdb84610eb6565b81016020851015610fea578190505b610ffe610ff685610eb6565b830182610f9d565b50505b505050565b600082821c905092915050565b600061102460001984600802611006565b1980831691505092915050565b600061103d8383611013565b9150826002028217905092915050565b611056826108a7565b67ffffffffffffffff81111561106f5761106e610ac8565b5b6110798254610d21565b611084828285610fc0565b600060209050601f8311600181146110b757600084156110a5578287015190505b6110af8582611031565b865550611117565b601f1984166110c586610ea1565b60005b828110156110ed578489015182556001820191506020850194506020810190506110c8565b8683101561110a5784890151611106601f891682611013565b8355505b6001600288020188555050505b50505050505056fea2646970667358221220def3971d70c025d62225dd61e38c53b1f08e77f061f43844b65a5f2657b97fc864736f6c63430008130033a26469706673582212200b31be5de02c727f94ef5ca5f39f5b2483c2f73e5336ba0f8f8dec6d5159753264736f6c63430008130033",
  "linkReferences": {},
  "deployedLinkReferences": {}
}