{
  "_format": "hh-sol-artifact-1",
  "contractName": "CarBooklet",
  "sourceName": "contracts/CarBooklet.sol",
  "abi": [
    {
      "inputs": [
        {
          "internalType": "address",
          "name": "_owner",
          "type": "address"
        }
      ],
      "stateMutability": "nonpayable",
      "type": "constructor"
    },
    {
      "anonymous": false,
      "inputs": [
        {
          "indexed": false,
          "internalType": "uint256",
          "name": "",
          "type": "uint256"
        }
      ],
      "name": "RecordCreated",
      "type": "event"
    },
    {
      "inputs": [
        {
          "internalType": "uint256",
          "name": "mileage",
          "type": "uint256"
        },
        {
          "internalType": "string",
          "name": "description",
          "type": "string"
        }
      ],
      "name": "addMaintenanceRecord",
      "outputs": [],
      "stateMutability": "nonpayable",
      "type": "function"
    },
    {
      "inputs": [
        {
          "internalType": "address",
          "name": "addr",
          "type": "address"
        }
      ],
      "name": "allowAuthorization",
      "outputs": [],
      "stateMutability": "nonpayable",
      "type": "function"
    },
    {
      "inputs": [
        {
          "internalType": "uint256",
          "name": "_mapId",
          "type": "uint256"
        }
      ],
      "name": "getMaintenanceRecord",
      "outputs": [
        {
          "components": [
            {
              "internalType": "uint256",
              "name": "mileage",
              "type": "uint256"
            },
            {
              "internalType": "string",
              "name": "description",
              "type": "string"
            },
            {
              "internalType": "uint256",
              "name": "timestamp",
              "type": "uint256"
            }
          ],
          "internalType": "struct CarBooklet.MaintenanceRecord",
          "name": "record",
          "type": "tuple"
        }
      ],
      "stateMutability": "view",
      "type": "function"
    },
    {
      "inputs": [
        {
          "internalType": "address",
          "name": "addr",
          "type": "address"
        }
      ],
      "name": "hasAuthorizedCredential",
      "outputs": [
        {
          "internalType": "bool",
          "name": "",
          "type": "bool"
        }
      ],
      "stateMutability": "view",
      "type": "function"
    },
    {
      "inputs": [],
      "name": "mapId",
      "outputs": [
        {
          "internalType": "uint256",
          "name": "",
          "type": "uint256"
        }
      ],
      "stateMutability": "view",
      "type": "function"
    },
    {
      "inputs": [],
      "name": "owner",
      "outputs": [
        {
          "internalType": "address",
          "name": "",
          "type": "address"
        }
      ],
      "stateMutability": "view",
      "type": "function"
    },
    {
      "inputs": [
        {
          "internalType": "address",
          "name": "addr",
          "type": "address"
        }
      ],
      "name": "revokeAuthorization",
      "outputs": [],
      "stateMutability": "nonpayable",
      "type": "function"
    }
  ],
  "bytecode": "0x60806040523480156200001157600080fd5b50604051620012f7380380620012f7833981810160405281019062000037919062000160565b806000806101000a81548173ffffffffffffffffffffffffffffffffffffffff021916908373ffffffffffffffffffffffffffffffffffffffff16021790555060018060008060009054906101000a900473ffffffffffffffffffffffffffffffffffffffff1673ffffffffffffffffffffffffffffffffffffffff1673ffffffffffffffffffffffffffffffffffffffff16815260200190815260200160002060006101000a81548160ff0219169083151502179055505062000192565b600080fd5b600073ffffffffffffffffffffffffffffffffffffffff82169050919050565b60006200012882620000fb565b9050919050565b6200013a816200011b565b81146200014657600080fd5b50565b6000815190506200015a816200012f565b92915050565b600060208284031215620001795762000178620000f6565b5b6000620001898482850162000149565b91505092915050565b61115580620001a26000396000f3fe608060405234801561001057600080fd5b506004361061007d5760003560e01c8063b48028e31161005b578063b48028e3146100ee578063d7736e6b1461010a578063f0db83a214610126578063f37f4416146101565761007d565b8063188b3a47146100825780634cb4d409146100b25780638da5cb5b146100d0575b600080fd5b61009c6004803603810190610097919061086b565b610172565b6040516100a99190610987565b60405180910390f35b6100ba6102d1565b6040516100c791906109b8565b60405180910390f35b6100d86102d7565b6040516100e59190610a14565b60405180910390f35b61010860048036038101906101039190610a5b565b6102fb565b005b610124600480360381019061011f9190610a5b565b6103e4565b005b610140600480360381019061013b9190610a5b565b6104cc565b60405161014d9190610aa3565b60405180910390f35b610170600480360381019061016b9190610bf3565b6105b0565b005b61017a610800565b600160003373ffffffffffffffffffffffffffffffffffffffff1673ffffffffffffffffffffffffffffffffffffffff16815260200190815260200160002060009054906101000a900460ff16610206576040517f08c379a00000000000000000000000000000000000000000000000000000000081526004016101fd90610cd2565b60405180910390fd5b600360008381526020019081526020016000206040518060600160405290816000820154815260200160018201805461023e90610d21565b80601f016020809104026020016040519081016040528092919081815260200182805461026a90610d21565b80156102b75780601f1061028c576101008083540402835291602001916102b7565b820191906000526020600020905b81548152906001019060200180831161029a57829003601f168201915b505050505081526020016002820154815250509050919050565b60025481565b60008054906101000a900473ffffffffffffffffffffffffffffffffffffffff1681565b3373ffffffffffffffffffffffffffffffffffffffff1660008054906101000a900473ffffffffffffffffffffffffffffffffffffffff1673ffffffffffffffffffffffffffffffffffffffff1614610389576040517f08c379a000000000000000000000000000000000000000000000000000000000815260040161038090610d9e565b60405180910390fd5b6000600160008373ffffffffffffffffffffffffffffffffffffffff1673ffffffffffffffffffffffffffffffffffffffff16815260200190815260200160002060006101000a81548160ff02191690831515021790555050565b3373ffffffffffffffffffffffffffffffffffffffff1660008054906101000a900473ffffffffffffffffffffffffffffffffffffffff1673ffffffffffffffffffffffffffffffffffffffff1614610472576040517f08c379a000000000000000000000000000000000000000000000000000000000815260040161046990610d9e565b60405180910390fd5b60018060008373ffffffffffffffffffffffffffffffffffffffff1673ffffffffffffffffffffffffffffffffffffffff16815260200190815260200160002060006101000a81548160ff02191690831515021790555050565b60003373ffffffffffffffffffffffffffffffffffffffff1660008054906101000a900473ffffffffffffffffffffffffffffffffffffffff1673ffffffffffffffffffffffffffffffffffffffff161461055c576040517f08c379a000000000000000000000000000000000000000000000000000000000815260040161055390610d9e565b60405180910390fd5b600160008373ffffffffffffffffffffffffffffffffffffffff1673ffffffffffffffffffffffffffffffffffffffff16815260200190815260200160002060009054906101000a900460ff169050919050565b600160003373ffffffffffffffffffffffffffffffffffffffff1673ffffffffffffffffffffffffffffffffffffffff16815260200190815260200160002060009054906101000a900460ff1661063c576040517f08c379a000000000000000000000000000000000000000000000000000000000815260040161063390610cd2565b60405180910390fd5b60006003600060025481526020019081526020016000206040518060600160405290816000820154815260200160018201805461067890610d21565b80601f01602080910402602001604051908101604052809291908181526020018280546106a490610d21565b80156106f15780601f106106c6576101008083540402835291602001916106f1565b820191906000526020600020905b8154815290600101906020018083116106d457829003601f168201915b5050505050815260200160028201548152505090508060000151831161074c576040517f08c379a000000000000000000000000000000000000000000000000000000000815260040161074390610e0a565b60405180910390fd5b604051806060016040528084815260200183815260200142815250905060026000815461077890610e59565b91905081905550806003600060025481526020019081526020016000206000820151816000015560208201518160010190816107b4919061104d565b50604082015181600201559050507fd85c539e78ead40cc51b164f6ad949815a6421a9158bee2b8a653e25eb2c5e7d6002546040516107f391906109b8565b60405180910390a1505050565b60405180606001604052806000815260200160608152602001600081525090565b6000604051905090565b600080fd5b600080fd5b6000819050919050565b61084881610835565b811461085357600080fd5b50565b6000813590506108658161083f565b92915050565b6000602082840312156108815761088061082b565b5b600061088f84828501610856565b91505092915050565b6108a181610835565b82525050565b600081519050919050565b600082825260208201905092915050565b60005b838110156108e15780820151818401526020810190506108c6565b60008484015250505050565b6000601f19601f8301169050919050565b6000610909826108a7565b61091381856108b2565b93506109238185602086016108c3565b61092c816108ed565b840191505092915050565b600060608301600083015161094f6000860182610898565b506020830151848203602086015261096782826108fe565b915050604083015161097c6040860182610898565b508091505092915050565b600060208201905081810360008301526109a18184610937565b905092915050565b6109b281610835565b82525050565b60006020820190506109cd60008301846109a9565b92915050565b600073ffffffffffffffffffffffffffffffffffffffff82169050919050565b60006109fe826109d3565b9050919050565b610a0e816109f3565b82525050565b6000602082019050610a296000830184610a05565b92915050565b610a38816109f3565b8114610a4357600080fd5b50565b600081359050610a5581610a2f565b92915050565b600060208284031215610a7157610a7061082b565b5b6000610a7f84828501610a46565b91505092915050565b60008115159050919050565b610a9d81610a88565b82525050565b6000602082019050610ab86000830184610a94565b92915050565b600080fd5b600080fd5b7f4e487b7100000000000000000000000000000000000000000000000000000000600052604160045260246000fd5b610b00826108ed565b810181811067ffffffffffffffff82111715610b1f57610b1e610ac8565b5b80604052505050565b6000610b32610821565b9050610b3e8282610af7565b919050565b600067ffffffffffffffff821115610b5e57610b5d610ac8565b5b610b67826108ed565b9050602081019050919050565b82818337600083830152505050565b6000610b96610b9184610b43565b610b28565b905082815260208101848484011115610bb257610bb1610ac3565b5b610bbd848285610b74565b509392505050565b600082601f830112610bda57610bd9610abe565b5b8135610bea848260208601610b83565b91505092915050565b60008060408385031215610c0a57610c0961082b565b5b6000610c1885828601610856565b925050602083013567ffffffffffffffff811115610c3957610c38610830565b5b610c4585828601610bc5565b9150509250929050565b600082825260208201905092915050565b7f4f6e6c7920617574686f72697a6564206164647265737365732061726520616c60008201527f6c6f7765642e0000000000000000000000000000000000000000000000000000602082015250565b6000610cbc602683610c4f565b9150610cc782610c60565b604082019050919050565b60006020820190508181036000830152610ceb81610caf565b9050919050565b7f4e487b7100000000000000000000000000000000000000000000000000000000600052602260045260246000fd5b60006002820490506001821680610d3957607f821691505b602082108103610d4c57610d4b610cf2565b5b50919050565b7f4f6e6c79206f776e657220697320616c6c6f7765642e00000000000000000000600082015250565b6000610d88601683610c4f565b9150610d9382610d52565b602082019050919050565b60006020820190508181036000830152610db781610d7b565b9050919050565b7f4d696c6561676520697320696e636f72726563742e0000000000000000000000600082015250565b6000610df4601583610c4f565b9150610dff82610dbe565b602082019050919050565b60006020820190508181036000830152610e2381610de7565b9050919050565b7f4e487b7100000000000000000000000000000000000000000000000000000000600052601160045260246000fd5b6000610e6482610835565b91507fffffffffffffffffffffffffffffffffffffffffffffffffffffffffffffffff8203610e9657610e95610e2a565b5b600182019050919050565b60008190508160005260206000209050919050565b60006020601f8301049050919050565b600082821b905092915050565b600060088302610f037fffffffffffffffffffffffffffffffffffffffffffffffffffffffffffffffff82610ec6565b610f0d8683610ec6565b95508019841693508086168417925050509392505050565b6000819050919050565b6000610f4a610f45610f4084610835565b610f25565b610835565b9050919050565b6000819050919050565b610f6483610f2f565b610f78610f7082610f51565b848454610ed3565b825550505050565b600090565b610f8d610f80565b610f98818484610f5b565b505050565b5b81811015610fbc57610fb1600082610f85565b600181019050610f9e565b5050565b601f82111561100157610fd281610ea1565b610fdb84610eb6565b81016020851015610fea578190505b610ffe610ff685610eb6565b830182610f9d565b50505b505050565b600082821c905092915050565b600061102460001984600802611006565b1980831691505092915050565b600061103d8383611013565b9150826002028217905092915050565b611056826108a7565b67ffffffffffffffff81111561106f5761106e610ac8565b5b6110798254610d21565b611084828285610fc0565b600060209050601f8311600181146110b757600084156110a5578287015190505b6110af8582611031565b865550611117565b601f1984166110c586610ea1565b60005b828110156110ed578489015182556001820191506020850194506020810190506110c8565b8683101561110a5784890151611106601f891682611013565b8355505b6001600288020188555050505b50505050505056fea2646970667358221220def3971d70c025d62225dd61e38c53b1f08e77f061f43844b65a5f2657b97fc864736f6c63430008130033",
  "linkReferences": {},
  "deployedLinkReferences": {}
}