{
  "_format": "hh-sol-artifact-1",
  "contractName": "CarBookletProvider",
  "sourceName": "contracts/CarBookletProvider.sol",
  "abi": [
    {
      "inputs": [],
      "stateMutability": "nonpayable",
      "type": "constructor"
    },
    {
      "anonymous": false,
      "inputs": [
        {
          "indexed": false,
          "internalType": "address",
          "name": "bookletAddr",
          "type": "address"
        }
      ],
      "name": "BookletCreated",
      "type": "event"
    },
    {
      "inputs": [
        {
          "internalType": "address",
          "name": "addr",
          "type": "address"
        }
      ],
      "name": "allowAuthorization",
      "outputs": [],
      "stateMutability": "nonpayable",
      "type": "function"
    },
    {
      "inputs": [
        {
          "internalType": "address",
          "name": "bookletOwner",
          "type": "address"
        }
      ],
      "name": "getBooklets",
      "outputs": [
        {
          "internalType": "address[]",
          "name": "booklets",
          "type": "address[]"
        }
      ],
      "stateMutability": "view",
      "type": "function"
    },
    {
      "inputs": [],
      "name": "getVersion",
      "outputs": [
        {
          "internalType": "string",
          "name": "",
          "type": "string"
        }
      ],
      "stateMutability": "pure",
      "type": "function"
    },
    {
      "inputs": [
        {
          "internalType": "address",
          "name": "addr",
          "type": "address"
        }
      ],
      "name": "hasAuthorizedCredential",
      "outputs": [
        {
          "internalType": "bool",
          "name": "",
          "type": "bool"
        }
      ],
      "stateMutability": "view",
      "type": "function"
    },
    {
      "inputs": [],
      "name": "owner",
      "outputs": [
        {
          "internalType": "address",
          "name": "",
          "type": "address"
        }
      ],
      "stateMutability": "view",
      "type": "function"
    },
    {
      "inputs": [
        {
          "internalType": "address",
          "name": "bookletOwner",
          "type": "address"
        }
      ],
      "name": "provide",
      "outputs": [],
      "stateMutability": "nonpayable",
      "type": "function"
    },
    {
      "inputs": [
        {
          "internalType": "address",
          "name": "addr",
          "type": "address"
        }
      ],
      "name": "revokeAuthorization",
      "outputs": [],
      "stateMutability": "nonpayable",
      "type": "function"
    }
  ],
  "bytecode": "0x608060405234801561001057600080fd5b50336000806101000a81548173ffffffffffffffffffffffffffffffffffffffff021916908373ffffffffffffffffffffffffffffffffffffffff160217905550611d6d806100606000396000f3fe608060405234801561001057600080fd5b506004361061007d5760003560e01c8063b48028e31161005b578063b48028e3146100da578063c44d6437146100f6578063d7736e6b14610126578063f0db83a2146101425761007d565b80630d8e6e2c146100825780631803aa33146100a05780638da5cb5b146100bc575b600080fd5b61008a610172565b6040516100979190610821565b60405180910390f35b6100ba60048036038101906100b591906108a6565b6101af565b005b6100c4610350565b6040516100d191906108e2565b60405180910390f35b6100f460048036038101906100ef91906108a6565b610374565b005b610110600480360381019061010b91906108a6565b61045d565b60405161011d91906109bb565b60405180910390f35b610140600480360381019061013b91906108a6565b6105b8565b005b61015c600480360381019061015791906108a6565b6106a0565b60405161016991906109f8565b60405180910390f35b60606040518060400160405280600281526020017f7631000000000000000000000000000000000000000000000000000000000000815250905090565b3373ffffffffffffffffffffffffffffffffffffffff1660008054906101000a900473ffffffffffffffffffffffffffffffffffffffff1673ffffffffffffffffffffffffffffffffffffffff161461023d576040517f08c379a000000000000000000000000000000000000000000000000000000000815260040161023490610a5f565b60405180910390fd5b60008160405161024c90610784565b61025691906108e2565b604051809103906000f080158015610272573d6000803e3d6000fd5b509050600260008373ffffffffffffffffffffffffffffffffffffffff1673ffffffffffffffffffffffffffffffffffffffff168152602001908152602001600020819080600181540180825580915050600190039060005260206000200160009091909190916101000a81548173ffffffffffffffffffffffffffffffffffffffff021916908373ffffffffffffffffffffffffffffffffffffffff1602179055507fd94317ab0056271298c300bb96d174a3d5d1cbd4b6a0f2a6f1562ca2bc68f2338160405161034491906108e2565b60405180910390a15050565b60008054906101000a900473ffffffffffffffffffffffffffffffffffffffff1681565b3373ffffffffffffffffffffffffffffffffffffffff1660008054906101000a900473ffffffffffffffffffffffffffffffffffffffff1673ffffffffffffffffffffffffffffffffffffffff1614610402576040517f08c379a00000000000000000000000000000000000000000000000000000000081526004016103f990610a5f565b60405180910390fd5b6000600160008373ffffffffffffffffffffffffffffffffffffffff1673ffffffffffffffffffffffffffffffffffffffff16815260200190815260200160002060006101000a81548160ff02191690831515021790555050565b60603373ffffffffffffffffffffffffffffffffffffffff1660008054906101000a900473ffffffffffffffffffffffffffffffffffffffff1673ffffffffffffffffffffffffffffffffffffffff16146104ed576040517f08c379a00000000000000000000000000000000000000000000000000000000081526004016104e490610a5f565b60405180910390fd5b600260008373ffffffffffffffffffffffffffffffffffffffff1673ffffffffffffffffffffffffffffffffffffffff1681526020019081526020016000208054806020026020016040519081016040528092919081815260200182805480156105ac57602002820191906000526020600020905b8160009054906101000a900473ffffffffffffffffffffffffffffffffffffffff1673ffffffffffffffffffffffffffffffffffffffff1681526020019060010190808311610562575b50505050509050919050565b3373ffffffffffffffffffffffffffffffffffffffff1660008054906101000a900473ffffffffffffffffffffffffffffffffffffffff1673ffffffffffffffffffffffffffffffffffffffff1614610646576040517f08c379a000000000000000000000000000000000000000000000000000000000815260040161063d90610a5f565b60405180910390fd5b60018060008373ffffffffffffffffffffffffffffffffffffffff1673ffffffffffffffffffffffffffffffffffffffff16815260200190815260200160002060006101000a81548160ff02191690831515021790555050565b60003373ffffffffffffffffffffffffffffffffffffffff1660008054906101000a900473ffffffffffffffffffffffffffffffffffffffff1673ffffffffffffffffffffffffffffffffffffffff1614610730576040517f08c379a000000000000000000000000000000000000000000000000000000000815260040161072790610a5f565b60405180910390fd5b600160008373ffffffffffffffffffffffffffffffffffffffff1673ffffffffffffffffffffffffffffffffffffffff16815260200190815260200160002060009054906101000a900460ff169050919050565b6112b880610a8083390190565b600081519050919050565b600082825260208201905092915050565b60005b838110156107cb5780820151818401526020810190506107b0565b60008484015250505050565b6000601f19601f8301169050919050565b60006107f382610791565b6107fd818561079c565b935061080d8185602086016107ad565b610816816107d7565b840191505092915050565b6000602082019050818103600083015261083b81846107e8565b905092915050565b600080fd5b600073ffffffffffffffffffffffffffffffffffffffff82169050919050565b600061087382610848565b9050919050565b61088381610868565b811461088e57600080fd5b50565b6000813590506108a08161087a565b92915050565b6000602082840312156108bc576108bb610843565b5b60006108ca84828501610891565b91505092915050565b6108dc81610868565b82525050565b60006020820190506108f760008301846108d3565b92915050565b600081519050919050565b600082825260208201905092915050565b6000819050602082019050919050565b61093281610868565b82525050565b60006109448383610929565b60208301905092915050565b6000602082019050919050565b6000610968826108fd565b6109728185610908565b935061097d83610919565b8060005b838110156109ae5781516109958882610938565b97506109a083610950565b925050600181019050610981565b5085935050505092915050565b600060208201905081810360008301526109d5818461095d565b905092915050565b60008115159050919050565b6109f2816109dd565b82525050565b6000602082019050610a0d60008301846109e9565b92915050565b7f4f6e6c79206f776e657220697320616c6c6f7765642e00000000000000000000600082015250565b6000610a4960168361079c565b9150610a5482610a13565b602082019050919050565b60006020820190508181036000830152610a7881610a3c565b905091905056fe60806040523480156200001157600080fd5b50604051620012b8380380620012b8833981810160405281019062000037919062000160565b806000806101000a81548173ffffffffffffffffffffffffffffffffffffffff021916908373ffffffffffffffffffffffffffffffffffffffff16021790555060018060008060009054906101000a900473ffffffffffffffffffffffffffffffffffffffff1673ffffffffffffffffffffffffffffffffffffffff1673ffffffffffffffffffffffffffffffffffffffff16815260200190815260200160002060006101000a81548160ff0219169083151502179055505062000192565b600080fd5b600073ffffffffffffffffffffffffffffffffffffffff82169050919050565b60006200012882620000fb565b9050919050565b6200013a816200011b565b81146200014657600080fd5b50565b6000815190506200015a816200012f565b92915050565b600060208284031215620001795762000178620000f6565b5b6000620001898482850162000149565b91505092915050565b61111680620001a26000396000f3fe608060405234801561001057600080fd5b50600436106100625760003560e01c8063188b3a47146100675780638da5cb5b14610097578063b48028e3146100b5578063d7736e6b146100d1578063f0db83a2146100ed578063f37f44161461011d575b600080fd5b610081600480360381019061007c919061082c565b610139565b60405161008e9190610948565b60405180910390f35b61009f610298565b6040516100ac91906109ab565b60405180910390f35b6100cf60048036038101906100ca91906109f2565b6102bc565b005b6100eb60048036038101906100e691906109f2565b6103a5565b005b610107600480360381019061010291906109f2565b61048d565b6040516101149190610a3a565b60405180910390f35b61013760048036038101906101329190610b8a565b610571565b005b6101416107c1565b600160003373ffffffffffffffffffffffffffffffffffffffff1673ffffffffffffffffffffffffffffffffffffffff16815260200190815260200160002060009054906101000a900460ff166101cd576040517f08c379a00000000000000000000000000000000000000000000000000000000081526004016101c490610c69565b60405180910390fd5b600360008381526020019081526020016000206040518060600160405290816000820154815260200160018201805461020590610cb8565b80601f016020809104026020016040519081016040528092919081815260200182805461023190610cb8565b801561027e5780601f106102535761010080835404028352916020019161027e565b820191906000526020600020905b81548152906001019060200180831161026157829003601f168201915b505050505081526020016002820154815250509050919050565b60008054906101000a900473ffffffffffffffffffffffffffffffffffffffff1681565b3373ffffffffffffffffffffffffffffffffffffffff1660008054906101000a900473ffffffffffffffffffffffffffffffffffffffff1673ffffffffffffffffffffffffffffffffffffffff161461034a576040517f08c379a000000000000000000000000000000000000000000000000000000000815260040161034190610d35565b60405180910390fd5b6000600160008373ffffffffffffffffffffffffffffffffffffffff1673ffffffffffffffffffffffffffffffffffffffff16815260200190815260200160002060006101000a81548160ff02191690831515021790555050565b3373ffffffffffffffffffffffffffffffffffffffff1660008054906101000a900473ffffffffffffffffffffffffffffffffffffffff1673ffffffffffffffffffffffffffffffffffffffff1614610433576040517f08c379a000000000000000000000000000000000000000000000000000000000815260040161042a90610d35565b60405180910390fd5b60018060008373ffffffffffffffffffffffffffffffffffffffff1673ffffffffffffffffffffffffffffffffffffffff16815260200190815260200160002060006101000a81548160ff02191690831515021790555050565b60003373ffffffffffffffffffffffffffffffffffffffff1660008054906101000a900473ffffffffffffffffffffffffffffffffffffffff1673ffffffffffffffffffffffffffffffffffffffff161461051d576040517f08c379a000000000000000000000000000000000000000000000000000000000815260040161051490610d35565b60405180910390fd5b600160008373ffffffffffffffffffffffffffffffffffffffff1673ffffffffffffffffffffffffffffffffffffffff16815260200190815260200160002060009054906101000a900460ff169050919050565b600160003373ffffffffffffffffffffffffffffffffffffffff1673ffffffffffffffffffffffffffffffffffffffff16815260200190815260200160002060009054906101000a900460ff166105fd576040517f08c379a00000000000000000000000000000000000000000000000000000000081526004016105f490610c69565b60405180910390fd5b60006003600060025481526020019081526020016000206040518060600160405290816000820154815260200160018201805461063990610cb8565b80601f016020809104026020016040519081016040528092919081815260200182805461066590610cb8565b80156106b25780601f10610687576101008083540402835291602001916106b2565b820191906000526020600020905b81548152906001019060200180831161069557829003601f168201915b5050505050815260200160028201548152505090508060000151831161070d576040517f08c379a000000000000000000000000000000000000000000000000000000000815260040161070490610da1565b60405180910390fd5b604051806060016040528084815260200183815260200142815250905060026000815461073990610df0565b91905081905550806003600060025481526020019081526020016000206000820151816000015560208201518160010190816107759190610fe4565b50604082015181600201559050507fd85c539e78ead40cc51b164f6ad949815a6421a9158bee2b8a653e25eb2c5e7d6002546040516107b491906110c5565b60405180910390a1505050565b60405180606001604052806000815260200160608152602001600081525090565b6000604051905090565b600080fd5b600080fd5b6000819050919050565b610809816107f6565b811461081457600080fd5b50565b60008135905061082681610800565b92915050565b600060208284031215610842576108416107ec565b5b600061085084828501610817565b91505092915050565b610862816107f6565b82525050565b600081519050919050565b600082825260208201905092915050565b60005b838110156108a2578082015181840152602081019050610887565b60008484015250505050565b6000601f19601f8301169050919050565b60006108ca82610868565b6108d48185610873565b93506108e4818560208601610884565b6108ed816108ae565b840191505092915050565b60006060830160008301516109106000860182610859565b506020830151848203602086015261092882826108bf565b915050604083015161093d6040860182610859565b508091505092915050565b6000602082019050818103600083015261096281846108f8565b905092915050565b600073ffffffffffffffffffffffffffffffffffffffff82169050919050565b60006109958261096a565b9050919050565b6109a58161098a565b82525050565b60006020820190506109c0600083018461099c565b92915050565b6109cf8161098a565b81146109da57600080fd5b50565b6000813590506109ec816109c6565b92915050565b600060208284031215610a0857610a076107ec565b5b6000610a16848285016109dd565b91505092915050565b60008115159050919050565b610a3481610a1f565b82525050565b6000602082019050610a4f6000830184610a2b565b92915050565b600080fd5b600080fd5b7f4e487b7100000000000000000000000000000000000000000000000000000000600052604160045260246000fd5b610a97826108ae565b810181811067ffffffffffffffff82111715610ab657610ab5610a5f565b5b80604052505050565b6000610ac96107e2565b9050610ad58282610a8e565b919050565b600067ffffffffffffffff821115610af557610af4610a5f565b5b610afe826108ae565b9050602081019050919050565b82818337600083830152505050565b6000610b2d610b2884610ada565b610abf565b905082815260208101848484011115610b4957610b48610a5a565b5b610b54848285610b0b565b509392505050565b600082601f830112610b7157610b70610a55565b5b8135610b81848260208601610b1a565b91505092915050565b60008060408385031215610ba157610ba06107ec565b5b6000610baf85828601610817565b925050602083013567ffffffffffffffff811115610bd057610bcf6107f1565b5b610bdc85828601610b5c565b9150509250929050565b600082825260208201905092915050565b7f4f6e6c7920617574686f72697a6564206164647265737365732061726520616c60008201527f6c6f7765642e0000000000000000000000000000000000000000000000000000602082015250565b6000610c53602683610be6565b9150610c5e82610bf7565b604082019050919050565b60006020820190508181036000830152610c8281610c46565b9050919050565b7f4e487b7100000000000000000000000000000000000000000000000000000000600052602260045260246000fd5b60006002820490506001821680610cd057607f821691505b602082108103610ce357610ce2610c89565b5b50919050565b7f4f6e6c79206f776e657220697320616c6c6f7765642e00000000000000000000600082015250565b6000610d1f601683610be6565b9150610d2a82610ce9565b602082019050919050565b60006020820190508181036000830152610d4e81610d12565b9050919050565b7f4d696c6561676520697320696e636f72726563742e0000000000000000000000600082015250565b6000610d8b601583610be6565b9150610d9682610d55565b602082019050919050565b60006020820190508181036000830152610dba81610d7e565b9050919050565b7f4e487b7100000000000000000000000000000000000000000000000000000000600052601160045260246000fd5b6000610dfb826107f6565b91507fffffffffffffffffffffffffffffffffffffffffffffffffffffffffffffffff8203610e2d57610e2c610dc1565b5b600182019050919050565b60008190508160005260206000209050919050565b60006020601f8301049050919050565b600082821b905092915050565b600060088302610e9a7fffffffffffffffffffffffffffffffffffffffffffffffffffffffffffffffff82610e5d565b610ea48683610e5d565b95508019841693508086168417925050509392505050565b6000819050919050565b6000610ee1610edc610ed7846107f6565b610ebc565b6107f6565b9050919050565b6000819050919050565b610efb83610ec6565b610f0f610f0782610ee8565b848454610e6a565b825550505050565b600090565b610f24610f17565b610f2f818484610ef2565b505050565b5b81811015610f5357610f48600082610f1c565b600181019050610f35565b5050565b601f821115610f9857610f6981610e38565b610f7284610e4d565b81016020851015610f81578190505b610f95610f8d85610e4d565b830182610f34565b50505b505050565b600082821c905092915050565b6000610fbb60001984600802610f9d565b1980831691505092915050565b6000610fd48383610faa565b9150826002028217905092915050565b610fed82610868565b67ffffffffffffffff81111561100657611005610a5f565b5b6110108254610cb8565b61101b828285610f57565b600060209050601f83116001811461104e576000841561103c578287015190505b6110468582610fc8565b8655506110ae565b601f19841661105c86610e38565b60005b828110156110845784890151825560018201915060208501945060208101905061105f565b868310156110a1578489015161109d601f891682610faa565b8355505b6001600288020188555050505b505050505050565b6110bf816107f6565b82525050565b60006020820190506110da60008301846110b6565b9291505056fea2646970667358221220ef36bc842146031fe8fe4575f9e175eb64938855111877cb0367f69a0bf1db1664736f6c63430008130033a2646970667358221220fb6c0bab21bd43cbb2762995e356456fcadb4e83513bacc94b6f24521286836a64736f6c63430008130033",
  "linkReferences": {},
  "deployedLinkReferences": {}
}